:100000000C942A000C94ED020C943C000C943C00DF
:100010000C943C000C943C000C943C000C943C0070
:100020000C943C000C943C000C943C000C94390360
:100030000C943C000C943C000C943C000C943C0050
:100040000C943C000C943C000C943C000C943C0040
:100050000C943C0011241FBECFE5D8E0DEBFCDBF1D
:1000600020E0A0E6B0E001C01D92A936B207E1F79A
:100070000E949F000C9460030C940000809161002A
:1000800090916200A0916300B09164000196A11D5F
:10009000B11D8093610090936200A0936300B093C0
:1000A000640087372BE59207A105B10591F1833BE9
:1000B0002AE69207A105B10561F18F3E29E7920773
:1000C000A105B10531F18B3229E89207A105B105EF
:1000D00001F18D3124EF9207A105B105D1F08935E9
:1000E00023E0920721E0A207B10599F0853922E1CA
:1000F000920721E0A207B10561F0813D21E292075C
:1001000021E0A207B10529F0803B9043A140B10551
:1001100031F49091600081E0892780936000089518
:100120008BE49CE4A0E0B0E08093610090936200D7
:10013000A0936300B09364000E94E002089580E9F8
:1001400090E00E94E80240E060E080E00E94B70298
:100150008EE390E00E94340340E061E080E00E9482
:1001600014038091610090916200A0916300B091AE
:1001700064008B342CE49207A105B10568F460E0BB
:1001800080E00E94260161E080E00E94350162E08B
:1001900080E00E943501E5CF863928E99207A10564
:1001A000B105E0F480399C44A105B10510F40E942A
:1001B000E00260E080E00E943501809160008111E2
:1001C00004C061E00E94260104C061E080E00E945A
:1001D000350162E080E00E943501C3CF813E24EE0C
:1001E0009207A105B10568F460E080E00E94350146
:1001F00061E080E00E94350162E080E00E9426011B
:10020000B0CF8C329143A140B105A8F460E080E00A
:100210000E94350180916000811104C061E00E945C
:10022000260104C061E080E00E94350162E080E0C8
:100230000E94350196CF10926100109262001092D8
:100240006300109264000E94E4028BCFCF93DF938F
:10025000C82FD62F40E00E94440141E06D2F8C2F23
:100260000E942202DF91CF910895CF93DF93C82F90
:10027000D62F40E00E94440140E06D2F8C2F0E9459
:100280002202DF91CF910895843008F0CDC068300C
:1002900008F0CCC08130C1F138F0823009F464C07C
:1002A000833009F491C0C4C0413081F018F042306D
:1002B000D1F0C0C02AB381E090E002C0880F991F3E
:1002C0006A95E2F7822B8ABB81E008952AB381E028
:1002D00090E002C0880F991F6A95E2F7809582230B
:1002E0008ABB81E008952AB381E090E002C0880FC4
:1002F000991F6A95E2F7982F909592239ABB9BB32A
:10030000892B8BBB81E00895413081F018F0423099
:10031000D1F092C027B381E090E002C0880F991F0E
:100320006A95E2F7822B87BB81E0089527B381E0CD
:1003300090E002C0880F991F6A95E2F780958223AA
:1003400087BB81E0089527B381E090E002C0880F69
:10035000991F6A95E2F7982F9095922397BB98B3CF
:10036000892B88BB81E00895413081F018F042303C
:10037000D1F064C024B381E090E002C0880F991FDF
:100380006A95E2F7822B84BB81E0089524B381E073
:1003900090E002C0880F991F6A95E2F7809582234A
:1003A00084BB81E0089524B381E090E002C0880F0F
:1003B000991F6A95E2F7982F9095922394BB95B375
:1003C000892B85BB81E00895413081F018F04230DF
:1003D000D1F036C021B381E090E002C0880F991FB0
:1003E0006A95E2F7822B81BB81E0089521B381E019
:1003F00090E002C0880F991F6A95E2F780958223EA
:1004000081BB81E0089521B381E090E002C0880FB4
:10041000991F6A95E2F7982F9095922391BB92B31A
:10042000892B82BB81E0089580E0089580E00895E3
:1004300080E0089580E0089580E0089580E00895C8
:1004400080E00895843008F084C0683008F083C0EC
:10045000813031F138F0823009F440C0833009F442
:100460005BC07BC0442379F0413009F078C02BB3E6
:1004700081E090E002C0880F991F6A95E2F7822B15
:100480008BBB81E008952BB381E090E002C0880F20
:10049000991F6A95E2F7809582238BBB81E00895CE
:1004A000442379F0413009F05CC028B381E090E04A
:1004B00002C0880F991F6A95E2F7822B88BB81E002
:1004C000089528B381E090E002C0880F991F6A95D3
:1004D000E2F78095822388BB81E00895442379F078
:1004E000413009F040C025B381E090E002C0880FA0
:1004F000991F6A95E2F7822B85BB81E0089525B3A9
:1005000081E090E002C0880F991F6A95E2F780951C
:10051000822385BB81E00895442371F0413029F5A1
:1005200022B381E090E002C0880F991F6A95E2F73C
:10053000822B82BB81E0089522B381E090E002C06B
:10054000880F991F6A95E2F78095822382BB81E02C
:10055000089580E0089580E0089580E0089580E0A7
:10056000089580E0089580E0089580E00895811165
:1005700025C0442319F0413049F010C085B781608F
:1005800085BF85B7826085BF81E009C085B78E7F52
:1005900085BF85B7826085BF81E001C080E06111C1
:1005A00007C09FB790689FBF9BB790649BBF08959B
:1005B000613029F49BB79F7B9BBF089580E008952D
:1005C0008BB78F7B8BBF08958BB780648BBF0895EB
:1005D000909366008093650008951F920F920FB666
:1005E0000F9211242F933F934F935F936F937F93B9
:1005F0008F939F93AF93BF93EF93FF93E091650029
:10060000F09166000995FF91EF91BF91AF919F9195
:100610008F917F916F915F914F913F912F910F90AB
:100620000FBE0F901F901895811108C083B7877F68
:1006300083BF83B78F7B83BF81E001C080E06130DF
:1006400039F49FB790689FBF99B7916099BF01C077
:1006500080E042BF93B7916093BF93B79D7F93BFF4
:1006600093B79B7F93BF0895909368008093670032
:1006700008951F920F920FB60F9211242F933F935C
:100680004F935F936F937F938F939F93AF93BF939A
:10069000EF93FF93E0916700F09168000995FF9157
:1006A000EF91BF91AF919F918F917F916F915F91EA
:1006B0004F913F912F910F900FBE0F901F90189563
:0406C000F894FFCFDC
:00000001FF
